:020000040800F2
:100000004008002001010008CD0500084F05000848
:10001000C9050008B1030008DB1600080000000055
:10002000000000000000000000000000B90C000803
:10003000B503000800000000A10B00081D0F000818
:100040001B0100081B0100081B0100081B01000820
:100050001B0100081B0100081B0100081B01000810
:100060001B0100081B0100081B0100081B01000800
:100070001B0100081B0100081B0100081B010008F0
:100080001B0100081B0100081B0100081B010008E0
:100090001B0100081B0100081B0100081B010008D0
:1000A0001B0100081B0100081B0100081B010008C0
:1000B0001B0100081B0100081B0100081B010008B0
:1000C0001B0100081B0100081B0100081B010008A0
:1000D0001B0100081913000805140008ED1400089E
:1000E0001B0100081B0100081B010008DFF80CD0F1
:1000F00000F04CF9004800470918000840080020AB
:100100000648804706480047FEE7FEE7FEE7FEE7B1
:10011000FEE7FEE7FEE7FEE7FEE7FEE7210F000849
:10012000ED0000080649074A0868504343F23902C7
:10013000104408604008704701490860704700009B
:100140003C0000206D4EC641F0B480EA0102D40F9D
:100150004200B2EB410F02D20246084611464A0065
:1001600042D0C30DDDB2C1F3C752AD1A202D35DA2E
:10017000C1F3160141F4000204B15242C5F1200658
:1001800002FA06F12A411044B3EBD05F23D0C4B188
:10019000012DA0EBC35009DCF0BC4FF0004202EA95
:1001A000C352DBB200F5000000F0C1B8400000F11E
:1001B000807000EBC350A0F1807040EAD17049001C
:1001C00009E0490841EAC071A0EBC35000F5000006
:1001D000400800EBC350F0BC00F0A0B8614201221F
:1001E00002EB4101001BF6E7F0BC704781F00041D3
:1001F000AAE780F00040A7E780EA010210B502F00C
:100200000043400022D04A001FD0010E01EB1261D2
:10021000C0F35600C2F3560240F4000042F400025C
:10022000A0FB022000047F39140400D0401C50EAD7
:10023000124001D44000491EC2B20C0604EBD0109B
:10024000401C4008802A02D003E0002010BD20F0AE
:100250000100002900DA0020184310BD30B480EA04
:10026000010202F0004530F0004221F0004013D0BE
:1002700090B1C30DD40DC2F31601C0F31600E41AF9
:1002800041F4000140F400027D34914201D3641C2A
:1002900000E04900002C02DA30BC002070474FF427
:1002A00000000023914201D3891A034340084FEA1A
:1002B0004101F7D151B1914202D14FF0004105E027
:1002C00002D24FF0010101E06FF0010103EBC450D5
:1002D000284430BC00F022B8C10F80EAE070084426
:1002E000CA079623002100F022B896230022114667
:1002F00000F01DB820F00040C10DC0F3160040F41E
:1003000000007F2901DA00207047962903DCC1F143
:100310009601C84070479639884070470029A8BFA9
:100320007047401C490008BF20F00100704710B41E
:10033000B0FA80FC00FA0CF050EA010404BF10BCD3
:10034000704749B1CCF1200421FA04F411FA0CF100
:1003500018BF012121430843A3EB0C01CB1D4FEA39
:1003600000614FEA102042BF002010BC704700EB34
:10037000C35010440029A4BF10BC7047401C490062
:1003800008BF20F0010010BC70470000064C074D6C
:1003900006E0E06840F0010394E807009847103455
:1003A000AC42F6D3FFF7A6FE94660008B4660008D8
:1003B00000BFFEE7704700B5034603E04FF47A70D4
:1003C00000F011F8181EA3F10103F7D100BD10B51C
:1003D000044603E04FF47A70FFF7EDFF201EA4F10E
:1003E0000104F7D110BD00EBC001C9004FF0E022BD
:1003F0005161002191610521116100BF4FF0E021A1
:10040000096901F480310029F8D004214FF0E0227D
:10041000116170472DE9F0410246002500260020B9
:1004200000230024002791F803C00CF00F0591F879
:1004300003C00CF0100CBCF1000F03D091F802C007
:100440004CEA050591F800C0BCF1000F31D01468EA
:1004500000202BE04FF0010C0CFA00F3B1F800C0C3
:100460000CEA03069E4220D183004FF00F0C0CFAD9
:1004700003F7BC4305FA03FC4CEA040491F803C0FB
:10048000BCF1280F06D14FF0010C0CFA00FCC2F8A9
:1004900014C00AE091F803C0BCF1480F05D14FF039
:1004A000010C0CFA00FCC2F810C0401C0828D1D383
:1004B0001460B1F800C0BCF1FF0F34DD54680020B7
:1004C0002EE000F1080C4FF0010808FA0CF3B1F827
:1004D00000C00CEA03069E4221D183004FF00F0CAE
:1004E0000CFA03F7BC4305FA03FC4CEA040491F848
:1004F00003C0BCF1280F05D100F1080C08FA0CF874
:10050000C2F8148091F803C0BCF1480F07D100F184
:10051000080C4FF0010808FA0CF8C2F81080401CD3
:100520000828CED35460BDE8F08102460020D3688D
:100530000B400BB1012000E0002070474161704783
:10054000016170470AB1016100E04161704700BF7D
:10055000FEE7000010B54FF400510248FFF7F0FF2E
:1005600010BD00000010014010B54FF400510848C4
:10057000FFF7DBFF28B94FF400510548FFF7E0FF14
:1005800004E04FF400510248FFF7D8FF10BD00000F
:100590000010014008B50121102000F013FB1020CD
:1005A0008DF803004002ADF8000003208DF8020032
:1005B00069460448FFF72EFF4FF400510148FFF74A
:1005C000BDFF08BD0010014000BFFEE770470000FE
:1005D00070B5002100230F22C47804B3154C2468A1
:1005E00004F4E064C4F5E064210AC1F10403CA40E4
:1005F000447804FA03F184781440214309010E4C35
:100600000678A155047804F01F050124AC40057854
:100610006D11AD0005F1E025C5F8004109E0047851
:1006200004F01F050124AC40044D0678761145F80E
:10063000264070BD0CED00E000E400E080E100E049
:1006400002490143024A1160704700000000FA05A8
:100650000CED00E000200CE0002106E00022064B3B
:1006600003EBC0135A544A1CD1B28029F6DB421C5A
:10067000D0B20828F0DB7047400000202DE9F0439D
:1006800004460D4616461F467F2C01DDBDE8F0836B
:100690003F2D00DDFAE7A119802902DDC4F18001B8
:1006A000CEB2E919402902DDC5F14001CFB228469A
:1006B00030E0234629E04FEAE07C00EB5C7C4FEA27
:1006C000EC0CDFF85C8008EBCC1C1CF803C0024685
:1006D0004FEAE07800EB58784FEAE808A0EBC80949
:1006E0004FF0010808FA09F82CEA080C01464FEA15
:1006F000E07800EB58784FEAE808DFF8249009EB3F
:10070000C81808F803C0591CCBB2A1199942D2DC11
:10071000411CC8B2E9198142CBDC00BFB6E700003A
:100720004000002038B5002406E0002500E06D1CE4
:10073000B5F57A7FFBD3641CB4F57A7FF5D301213C
:10074000082000F03FFA14208DF8030003208DF8F4
:1007500002004FF40050ADF8000069460848FFF76A
:1007600059FE4FF48050ADF8000069460448FFF789
:1007700051FE012000F048F9012000F051F938BD88
:10078000000C014070B50546002411E08021214194
:10079000294009B1012100E00021084600F040F99C
:1007A000012000F031F9002000F02EF9601CC4B2E5
:1007B000082CEBDB012000F027F9002000F024F9E1
:1007C00070BD10B5012000F02BF9012000F01CF9DC
:1007D000002000F025F9002000F016F910BD10B53A
:1007E000002000F01DF9012000F00EF9012000F0BA
:1007F00017F910BD10B5FFF795FFAE2000F01CF9FA
:10080000D52000F019F9802000F016F9A82000F09A
:1008100013F93F2000F010F9D32000F00DF900206B
:1008200000F00AF9402000F007F9A02000F004F9D8
:10083000C02000F001F9DA2000F0FEF8122000F0EC
:10084000FBF8812000F0F8F8CF2000F0F5F8D9206F
:1008500000F0F2F8F12000F0EFF8DB2000F0ECF807
:10086000302000F0E9F8A42000F0E6F8A62000F01F
:10087000E3F88D2000F0E0F8142000F0DDF8AF2060
:1008800000F0DAF8FFF7E6FE00F0AAF810BD70B548
:1008900005460C4645F0B00000F0CEF8102141EAC4
:1008A000141000F0C9F804F00F0000F0C5F870BD96
:1008B0002DE9F04707460C4690469946DDF820A002
:1008C0007F2F01DDBDE8F0873F2C00DDFAE74B46C6
:1008D000424621463846FFF7D1FE002570E000264B
:1008E00069E0B8197F2800DD67E0E11704EB51717A
:1008F00005EBE101072900DDE4E72046E21704EB00
:10090000527205EBE202354B03EBC212BB19D25C0B
:100910002146E31704EB5373DB10A4EBC30305FB81
:10092000086C1AF80CC00CFA03FC42EA0C02E3173C
:1009300004EB537305EBE303DFF8A0C00CEBC31328
:1009400007EB060C03F80C20E11704EB517105EBE3
:10095000E101491C072900DD2BE02046E21704EBEA
:10096000527205EBE202521C1C4B03EBC212BB1984
:10097000D25C2146E31704EB5373DB10A4EBC303F3
:10098000C3F1080305FB086C1AF80CC04CFA03FC11
:1009900042EA0C02E31704EB537305EBE3035B1C21
:1009A000DFF838C00CEBC31307EB060C03F80C2080
:1009B00000BF701CC6B2464593DB00BF681CC5B2C1
:1009C000A9F10100C11700EB5171012202EBE10115
:1009D000A94284DC00F004F800BF73E74000002067
:1009E00010B500240BE000212046FFF750FF054919
:1009F00001EBC410802100F02FF8601CC4B2082C59
:100A0000F1DB10BD4000002010B5044622464FF433
:100A100000510248FFF796FD10BD0000000C014098
:100A200010B5044622464FF480510248FFF78AFD74
:100A300010BD0000000C014010B50446FFF7C1FED8
:100A40007820FFF79FFE0020FFF79CFE2046FFF76F
:100A500099FEFFF7C4FE10BD70B505460E46FFF7C0
:100A6000B0FE7820FFF78EFE4020FFF78BFE0024BB
:100A700004E0285DFFF786FE601CC4B2B442F8DBD8
:100A8000FFF7ADFE70BD000000B589B00121022066
:100A900000F088F80121042000F094F801210820DA
:100AA00000F090F818208DF82300C020ADF8200049
:100AB00003208DF8220008A92248FFF7ABFC032091
:100AC000ADF8200008A92048FFF7A4FC1F4800F05B
:100AD00070FA0020ADF81A00ADF8160044F61F6059
:100AE000ADF818004720ADF8140000208DF81C0068
:100AF00005A9164800F0A4FB01A800F08DFB6020BA
:100B0000ADF804000020ADF80C000120ADF806009F
:100B10000020ADF80A0001A90C4800F09DFA01A9D7
:100B20000A4800F0EBFA01A9084800F049FA01A9C7
:100B3000064800F033FB0121044800F021FA09B017
:100B400000BD000000080140000C0140000400400E
:100B500010B504462146024800F068FB10BD0000B5
:100B60000004004010B504462146024800F060FB36
:100B700010BD00000004004010B5044621460248A4
:100B800000F058FB10BD00000004004010B5044602
:100B90002146024800F050FB10BD00000004004058
:100BA0007047000029B1064AD2690243044BDA615A
:100BB00004E0034AD2698243014BDA6170470000C6
:100BC0000010024029B1064A92690243044B9A611F
:100BD00004E0034A92698243014B9A617047000026
:100BE0000010024030B500210022002400232D4DCA
:100BF0006D6805F00C0121B1042905D0082923D125
:100C000005E0294D056022E0274D05601FE0254DD8
:100C10006D6805F47012234D6D6805F4803402256B
:100C200005EB92421CB9214D554305600BE01D4D6B
:100C30006D6805F400351DB11C4D5543056002E09B
:100C4000194D5543056002E0174D056000BF00BF18
:100C5000144D6D6805F0F0010909154D6B5C0568D0
:100C6000DD4045600F4D6D6805F4E061090A104DE7
:100C70006B5C4568DD4085600A4D6D6805F4605128
:100C8000C90A0B4D6B5C4568DD40C560054D6D685C
:100C900005F44041890B074D6B5CC568B5FBF3F566
:100CA000056130BD0010024000127A0000093D00CD
:100CB00000000020100000207047000010B506481A
:100CC00000F06AF9A0F5FA70B42148434FF4FA61D4
:100CD00090FBF1F0C0B210BD0004004010B5064812
:100CE00000F05DF9A0F5FA70B42148434FF4FA61C1
:100CF00090FBF1F0C0B210BD0004004010B50648F2
:100D000000F050F9A0F5FA70B42148434FF4FA61AD
:100D100090FBF1F0C0B210BD0004004010B50648D1
:100D200000F043F9A0F5FA70B42148434FF4FA619A
:100D300090FBF1F0C0B210BD0004004010B5FFF709
:100D4000A3FE10BD2DE9F04104460A492046FFF7F5
:100D500085FA80460849FFF74FFA07460749FFF72B
:100D6000F3F90646FFF7C6FA85B22846FFF7F0FE0C
:100D7000BDE8F081000034430000FA440000FA436B
:100D80002DE9F04104460A492046FFF767FA8046FC
:100D90000849FFF731FA07460749FFF7D5F9064634
:100DA000FFF7A8FA85B22846FFF7DCFEBDE8F08120
:100DB000000034430000FA440000FA432DE9F041FA
:100DC00004460A492046FFF749FA80460849FFF7DA
:100DD00013FA07460749FFF7B7F90646FFF78AFAFD
:100DE00085B22846FFF7C8FEBDE8F0810000344315
:100DF0000000FA440000FA432DE9F04104460A4994
:100E00002046FFF72BFA80460849FFF7F5F9074619
:100E10000749FFF799F90646FFF76CFA85B22846AD
:100E2000FFF7B4FEBDE8F081000034430000FA444F
:100E30000000FA4310B500F001F810BD0CB5002019
:100E4000019000903348006840F4803031490860D8
:100E500000BF3048006800F4003000900198401C4A
:100E60000190009818B90198B0F5A06FF1D1294808
:100E7000006800F4003010B10120009001E0002073
:100E800000900098012843D12348006840F01000EA
:100E9000214908600846006820F003000860084601
:100EA000006840F0020008601A484068194948602C
:100EB0000846406848600846406840F480604860E2
:100EC0000846406820F47C1048600846406840F4BA
:100ED000E81048600846006840F08070086000BF75
:100EE0000C48006800F000700028F9D009484068FC
:100EF00020F00300074948600846406840F00200BF
:100F0000486000BF0348406800F00C000828F9D191
:100F10000CBD00000010024000200240704700009D
:100F200010B51348006840F00100114908600846F8
:100F30004068104908400E494860084600680E495C
:100F400008400B4908600846006820F480200860CB
:100F50000846406820F4FE0048604FF41F00886097
:100F6000FFF768FF4FF000600449086010BD000003
:100F7000001002400000FFF8FFFFF6FE08ED00E061
:100F800021B1028842F00102028004E002884FF69B
:100F9000FE731A40028070470146888E70470146F2
:100FA000088F70470146888F70470146B1F84000AE
:100FB000704701894FF6F8721140018170470000B7
:100FC00070B5002400220023058C4FF6FE763540D4
:100FD0000584028C8388048B4FF68F752C40B51ED8
:100FE0002C400D882C43751E2A400D892A434D88BC
:100FF0002A43144DA8420BD0134DA84208D0134DDC
:10100000A84205D0124DA84202D0124DA84213D1D9
:101010004FF6F7752A404D892A434FF6FB752A4053
:101020008D882A434FF6FF652B404FF6FF552B4026
:101030008D892B43CD892B4383800483CD8885867E
:10104000028470BD002C014000340140004001408A
:10105000004401400048014070B5002400220023F4
:10106000058C4FF6EF7635400584028C8388048B1F
:1010700048F6FF752C404FF6FF452C400D884FF683
:10108000FF7606EA05252C434FF6DF752A400D89C9
:1010900006EA05152A434D8806EA05152A43154D2B
:1010A000A84202D0144DA8421DD14FF67F752A40A8
:1010B0004D894FF6FF7606EA05152A434FF6BF75B0
:1010C0002A408D8806EA05152A434FF6FF352B4046
:1010D0004FF2FF752B408D8906EA85052B43CD899C
:1010E00006EA85052B4383800483CD880587028427
:1010F00070BD0000002C01400034014070B5002498
:1011000000220023058C4FF6FF6635400584028CD3
:101110008388848B4FF68F752C404FF6FC752C40DE
:101120000D882C434FF6FF552A400D894FF6FF7668
:1011300006EA05252A434D8806EA05252A43154D6A
:10114000A84202D0144DA8421DD14FF2FF752A408B
:101150004D894FF6FF7606EA05252A434FF6FF35FF
:101160002A408D8806EA05252A434EF6FF752B4056
:101170004DF6FF752B408D8906EA05152B43CD8969
:1011800006EA05152B4383808483CD8885870284F6
:1011900070BD0000002C01400034014070B50022F9
:1011A00000230024058C4EF6FF7635400584038C21
:1011B0008488828B48F6FF752A404FF6FF452A4007
:1011C0000D884FF6FF7606EA05252A434DF6FF7592
:1011D0002B400D8906EA05352B434D8806EA053577
:1011E0002B430B4DA84202D00A4DA84208D14BF622
:1011F000FF752C408D894FF6FF7606EA85152C4346
:1012000084808283CD88A0F84050038470BD0000A4
:10121000002C014000340140002101804180818088
:10122000C180018141818181C18170478186704780
:101230000187704781877047A0F840107047000011
:10124000002202881D4B98420ED01D4B98420BD0B5
:10125000B0F1804F08D01B4B984205D01A4B9842F2
:1012600002D01A4B984204D14FF68F731A404B8824
:101270001A43174B984207D0164B984204D04FF6AA
:10128000FF431A40CB881A4302808B8883850B88E2
:1012900003850A4B98420BD0094B984208D00E4B5D
:1012A000984205D00D4B984202D00D4B984201D187
:1012B0000B7A03860123838270470000002C0140D3
:1012C000003401400004004000080040000C0040D1
:1012D0000010004000140040004001400044014064
:1012E0000048014000B500F009F8012802D1024889
:1012F000007800BD0020FCE71400002005480078BD
:10130000012804D100200349087001207047002003
:10131000FCE700001500002010B540F225510948F7
:1013200000F01BF901280CD1064800F0D1F906495C
:10133000087001200549087040F22551014800F06D
:10134000F1F810BD00380140140000201500002005
:1013500000B587B001218803FFF734FC0121042088
:10136000FFF730FC03208DF81A0018208DF81B00C1
:101370004FF40070ADF8180006A92048FFF74AF8AE
:1013800048208DF81B004FF48060ADF8180006A9C6
:101390001A48FFF73FF84FF4165002900020ADF8BE
:1013A00014000C20ADF812000020ADF81000ADF8CC
:1013B0000E00ADF80C0002A9114800F01DF9012241
:1013C00040F225510E4800F0F2F84FF4A060FFF70C
:1013D00037F925208DF8040001208DF807008DF8DD
:1013E000050003208DF8060001A8FFF7F1F80121A0
:1013F000034800F0A6F807B000BD00000008014057
:101400000038014010B540F22551094800F0A5F818
:1014100001280CD1064800F05BF90649087001204C
:101420000549087040F22551014800F07BF810BDD5
:1014300000440040160000201700002000B587B0CF
:1014400001210420FFF7BEFB01214804FFF7AAFB9E
:1014500003208DF81A0018208DF81B000420ADF829
:10146000180006A91F48FEF7D5FF48208DF81B007D
:101470000820ADF8180006A91A48FEF7CBFF4FF474
:10148000165002900020ADF814000C20ADF81200A8
:101490000020ADF81000ADF80E00ADF80C0002A968
:1014A000114800F0A9F8012240F225510E4800F041
:1014B0007EF84FF4A060FFF7C3F826208DF80400F3
:1014C00001208DF807008DF8050002208DF8060038
:1014D00001A8FFF77DF80121034800F032F807B0BA
:1014E00000BD0000000801400044004010B540F27B
:1014F0002551094800F031F801280CD1064800F0C8
:10150000E7F80649087001200549087040F22551A6
:10151000014800F007F810BD004800401800002006
:101520001900002010B50022002340F66A14A142E1
:1015300000D100BF0A1201249440A3B2DC4304800E
:1015400010BD21B1828942F40052828104E0828977
:101550004DF6FF731A408281704770B50246002431
:1015600000230025002040F66A16B14200D100BFDA
:10157000C1F3421501F01F03012606FA03F3012D02
:1015800002D19689334006E0022D02D1168A3340FB
:1015900001E0968A33400C12012606FA04F41688FC
:1015A000344013B10CB1012000E0002070BDF0B553
:1015B0000346002400260025002040F66A17B942A1
:1015C00000D100BF1846C1F3421401F01F060127E5
:1015D00007FA06F5012C01D10C3004E0022C01D1F0
:1015E000103000E014301AB107682F43076002E0A2
:1015F0000768AF430760F0BD2DE9F04786B00546A8
:101600000E460024A24600BFA1460027B08900B1C3
:1016100000BF2F462C8A4CF6FF700440F08804432C
:101620002C82AC894EF6F3100440B088318908430F
:10163000718908430443AC81AC8A4FF6FF400440F3
:10164000B0890443AC8201A8FFF7CCFA1F48874257
:1016500002D1DDF810A001E0DDF80CA0A88900F4AB
:10166000004040B10AEBCA0000EB0A1031684900A3
:10167000B0FBF1F807E00AEBCA0000EB0A10316892
:101680008900B0FBF1F86420B8FBF0F004012009F8
:10169000642101FB1089A88900F4004040B1322088
:1016A00000EBC900B0FBF1F000F00700044308E0D4
:1016B000322000EB09106421B0FBF1F000F00F00C4
:1016C00004432C8106B0BDE8F087000000380140DB
:1016D00001468888C0F30800704700BFFEE702E0BB
:1016E00008C8121F08C1002AFAD1704770470020AD
:1016F00001E001C1121F002AFBD1704770B5002024
:101700003F49086031E03E49096801F15A00FEF79F
:10171000E3FD0446FFF716FB39490968C1F15A0099
:10172000FEF7DAFD0446FFF749FB35490C6804EB88
:10173000D471491001F15A00FEF7CEFD0546FFF7BE
:101740001FFB2F490C6804EBD4714910C1F15A00FA
:10175000FEF7C2FD0546FFF74FFB0520FEF72BFE07
:1017600027480068401C26490860254800684B2827
:10177000C9DB24490968322201FB02F0FEF71BFE97
:1017800000201F49086031E01D490968C1F1A5002A
:10179000FEF7A2FD0446FFF7D5FA1949096801F1E1
:1017A0000F00FEF799FD0446FFF708FB14490C688B
:1017B00004EBD4714910C1F17F00FEF78DFD0546A1
:1017C000FFF7DEFA0E490C6804EBD471491001F101
:1017D0003500FEF781FD0546FFF70EFB0520FEF7FD
:1017E000EAFD07480068401C054908600448006895
:1017F0004B28C9DB03480068FEF7DDFD70BD000023
:101800001C0000202400002008B5FEF7C3FEFEF7F0
:10181000A1FEFEF7EFFFFEF71DFFFFF799FDFFF7B3
:101820000DFEFFF78BFAFEF715FF49484023802293
:10183000002100900846FFF73BF800F0C9FA85E068
:10184000FFF750FD434908700846007820B108466C
:1018500000784149087003E03F4800783E4908702D
:101860003D480078322802D100F0B8F86EE03A48DE
:101870000078312802D100F08DFA67E03648007810
:10188000332802D100F06AF860E033480078342849
:1018900002D100F0C5F959E02F480078352802D16F
:1018A00000F0E6F952E02C480078362802D100F02A
:1018B000E1FA4BE028480078372802D100F0F2FA2C
:1018C00044E025480078382802D100F06FF83DE068
:1018D00021480078392802D100F07AFA36E01E4813
:1018E0000078412802D100F055FA2FE01A4800781C
:1018F000612802D100F08AFA28E0174800786228AF
:1019000002D100F0BDF821E013480078632802D12D
:1019100000F054F91AE010480078642802D100F071
:1019200085F813E00C480078652802D100F0C8F96A
:101930000CE009480078662802D100F0E9F905E0DA
:1019400005480078682801D100F0E2F978E7000046
:10195000E43100082C0000202E00002008B50F48BC
:1019600040238022002100900846FEF7A1FF00F0EE
:10197000B1FAFEF7F9FD0A480078622805D1094856
:101980000088401C0749088002E0002005490880C3
:10199000054800780249087008BD0000E4350008D9
:1019A0002F000020340000202E00002008B5084839
:1019B00040238022002100900846FEF779FF00F0C6
:1019C000E3FAFEF7D1FD034800780349087008BD2B
:1019D000E44100082E0000202F00002008B50F4829
:1019E00040238022002100900846FEF761FF00F0AE
:1019F00061FBFEF7B9FD0A480078662805D1094861
:101A00000088401C0749088002E000200549088042
:101A1000054800780249087008BD0000E435000858
:101A20002F000020320000202E00002008B51048B2
:101A300040238022002100900846FEF739FF0D4820
:101A4000007800F057FD0C484023802200210090D0
:101A50000846FEF72DFF00F087FBFEF785FD0748DF
:101A600000780449087030200449087008BD00005F
:101A7000E43100082F000020E45500082E0000206B
:101A800038B54748007835280FD0454800784428B5
:101A90000BD0444840238022002100900846FEF7E6
:101AA00007FF3F48007800F025FD3F484023802293
:101AB000002100900846FEF7FBFE002418E0C4F168
:101AC0005A00FEF709FC0546FFF73CF904F15A00FD
:101AD000FEF702FC0546FFF753F9C4F15A00FEF782
:101AE000FBFB0546FFF788F90720FEF764FC641C42
:101AF000142CE4DB002411E004F16E00FEF7ECFB93
:101B00000546FFF73DF9C4F14600FEF7E5FB054643
:101B1000FFF772F90720FEF74EFC641C282CEBDB64
:101B200000240AE004F14600FEF7D6FB0546FFF765
:101B300009F90420FEF73FFC641C3C2CF2DB322048
:101B4000FEF739FC1948FFF7FDF84FF4C870FEF7AF
:101B500032FC1748FFF7F6F84FF4C870FEF72BFC7D
:101B60001248FFF7EFF84FF4C870FEF724FC104856
:101B7000FFF7E8F84FF4C870FEF71DFC0D48FFF7BB
:101B8000E1F84FF4FA70FEF716FCFEF7EDFC0A4898
:101B900000780349087030200749087038BD0000FC
:101BA0002F000020E4310008E45D00080000344309
:101BB0000000024300008C422E00002008B51448AB
:101BC00040238022002100900846FEF771FE114854
:101BD000007800F08FFC1048402380220021009004
:101BE0000846FEF765FEFFF789FD0948402380227D
:101BF000002100900846FEF75BFEFEF7B5FC0748A3
:101C000000780449087030200449087008BD0000BD
:101C1000E43100082F000020E45100082E000020CD
:101C200008B50F4840238022002100900846FEF7A7
:101C30003FFE00F0E1FAFEF797FC0A4800786C28B6
:101C400005D109480088401C0749088002E00020AF
:101C500005490880054800780249087008BD000061
:101C6000E43D00082F000020360000202E00002058
:101C700008B50F4840238022002100900846FEF757
:101C800017FE00F0EBFAFEF76FFC0A4800787228A6
:101C900005D109480088401C0749088002E000205F
:101CA00005490880054800780249087008BD000011
:101CB000E43900082F000020380000202E0000200A
:101CC00038B5FEF72FFA044600EBD4704010A4EBB1
:101CD000400040B10B48402380220021009008467C
:101CE000FEF7E6FD07E0084840238022002100902F
:101CF0000846FEF7DDFD00F081FB30200349087047
:101D000038BD0000E4450008E44D00082E00002026
:101D100038B51B480078352812D01948007871284A
:101D20000ED0184840238022002100900846FEF77C
:101D3000BFFD1348007800F0DDFB0120FEF747FBF4
:101D4000FEF7F0F9044600EBD4704010A4EB40001D
:101D500040B10D4840238022002100900846FEF744
:101D6000A7FD07E009484023802200210090084693
:101D7000FEF79EFD00F08AFB30200549087038BD53
:101D80002F000020E4310008E4450008E44D00087D
:101D90002E00002008B50B4840238022002100902F
:101DA0000846FEF785FD0848007800F0A3FBFEF723
:101DB000DBFB0648007804490870302003490870AE
:101DC00008BD0000E43100082F0000202E00002094
:101DD00008B50B4840238022002100900846FEF7FA
:101DE00067FD00F03FFCFEF7BFFB064800780649A0
:101DF00008703020034908700120FEF7E8FA08BD9A
:101E0000E43100082E0000202F00002008B51448FF
:101E100040238022002100900846FEF749FD11482A
:101E2000007800F067FB10484023802200210090DA
:101E30000846FEF73DFD00F029FC0C4840238022B7
:101E4000002100900846FEF733FDFEF78DFB0848A1
:101E500000780449087030200549087008BD00006A
:101E6000E43100082F000020E4350008E45D00089C
:101E70002E00002008B50848402380220021009051
:101E80000846FEF715FD00F01BFAFEF76DFB034850
:101E900000780349087008BDE45900082E000020AE
:101EA0002F00002008B50848402380220021009020
:101EB0000846FEF7FDFC00F047FAFEF755FB034825
:101EC00000780349087008BDE45900082E0000207E
:101ED0002F00002010B52848FEF734FF2748FEF7F2
:101EE0008BFF27480068FEF766FA2448FEF748FF94
:101EF0002148FEF763FF22480068FEF75CFA21489C
:101F0000FEF720FF1F48FEF777FF1D480068FEF729
:101F100052FA1C48FEF734FF1A48FEF74FFF1848E4
:101F20000068FEF748FA1448FEF72AFF1348FEF748
:101F300045FF13480068FEF73EFA1048FEF702FF1F
:101F40000D48FEF759FF0E480068FEF734FA0D48B9
:101F5000FEF716FF0B48FEF731FF09480068FEF751
:101F60002AFA0848FEF7EEFE0648FEF745FF044849
:101F70000068FEF720FA10BD00003442000007435D
:101F8000240000200000B44210B54648FEF7DAFEF7
:101F90004448FEF7F5FE44480068FEF70CFA414855
:101FA000FEF70CFF3F48FEF727FF3F480068FEF7AB
:101FB00002FA3E48FEF7C6FE3C48FEF7E1FE3A480C
:101FC0000068FEF7F8F93948FEF7F8FE3748FEF7E3
:101FD00013FF35480068FEF7EEF93248FEF7D0FEF1
:101FE0003048FEF7AFFE3248FEF7E8FE3048FEF715
:101FF00003FF9620FEF7DFF92C48FEF7A3FE2B48DF
:10200000FEF7BEFE2948FEF7D9FE2848FEF7F4FE8B
:102010009620FEF7D0F92648FEF7D0FE2448FEF7BA
:10202000EBFE21480068FEF7C6F92148FEF78AFE5C
:102030001F48FEF7A5FE1C480068FEF7BCF91B48C8
:10204000FEF7BCFE1948FEF7D7FE17480068FEF7FA
:10205000B2F91648FEF776FE1448FEF791FE1248D4
:102060000068FEF7A8F91248FEF78AFE1048FEF74E
:1020700069FE0C48FEF7A2FE0A48FEF7BDFE962058
:10208000FEF799F90948FEF75DFE0848FEF778FE6D
:102090000648FEF793FE0548FEF7AEFE9620FEF7D3
:1020A0008AF910BD00000743240000200000B4425C
:1020B0000000344210B52848FEF744FE2748FEF7DA
:1020C0009BFE27480068FEF776F92448FEF758FE85
:1020D0002148FEF773FE22480068FEF76CF921489C
:1020E000FEF730FE1F48FEF787FE1D480068FEF72A
:1020F00062F91C48FEF744FE1A48FEF75FFE1848D6
:102100000068FEF758F91448FEF73AFE1348FEF748
:1021100055FE13480068FEF74EF91048FEF712FE10
:102120000D48FEF769FE0E480068FEF744F90D48B9
:10213000FEF726FE0B48FEF741FE09480068FEF751
:102140003AF90848FEF7FEFD0648FEF755FE04483A
:102150000068FEF730F910BD00000743000034426C
:10216000240000200000B44210B50020214908607E
:1021700019E020490968C1F15A00FEF7ADF804469C
:10218000FEF7E0FD1B49096801F15A00FEF7A4F8CB
:102190000446FEF713FE0A20FEF70DF91548006805
:1021A000401C14490860134800681428E1DB002033
:1021B0001049086019E00F49096801F15A00FEF75B
:1021C0008BF80446FEF7DCFD0A490968C1F15A00A4
:1021D000FEF782F80446FEF70FFE0A20FEF7EBF842
:1021E00004480068401C0349086002480068412810
:1021F000E1DB10BD1C00002010B51448FEF7C0FD47
:102200001248FEF7DBFD12480068FEF7D4F81148CB
:10221000FEF798FD0F48FEF7EFFD0D480068FEF74A
:10222000CAF80D48FEF7ACFD0B48FEF7C7FD08489D
:102230000068FEF7C0F80848FEF784FD0648FEF780
:10224000DBFD03480068FEF7B6F810BD0000074349
:1022500024000020000034420000B44210B51448AD
:10226000FEF770FD1248FEF7C7FD12480068FEF742
:10227000A2F81148FEF784FD0F48FEF79FFD0D48B8
:102280000068FEF798F80D48FEF75CFD0B48FEF776
:10229000B3FD08480068FEF78EF80848FEF770FDA9
:1022A0000648FEF78BFD03480068FEF784F810BD72
:1022B0000000344224000020000007430000B44224
:1022C00010B51E48FEF75CFD1C48FEF73BFD1C48A0
:1022D000FEF774FD1A48FEF78FFD9620FEF76BF8A7
:1022E0001848FEF72FFD1748FEF74AFD1548FEF780
:1022F00065FD1448FEF780FD9620FEF75CF8104857
:10230000FEF73EFD0E48FEF71DFD0C48FEF756FD9C
:102310000A48FEF771FD9620FEF74DF80948FEF7D2
:1023200011FD0848FEF72CFD0648FEF747FD05485D
:10233000FEF762FD9620FEF73EF810BD0000074351
:10234000000034420000B44210B52848FEF7FAFC01
:102350002648FEF715FD26480068FEF72CF82348AE
:10236000FEF72CFD2148FEF747FD21480068FEF7E7
:1023700022F82048FEF7E6FC1E48FEF701FD1C4847
:102380000068FEF718F81B48FEF718FD1948FEF71D
:1023900033FD17480068FEF70EF81748FEF70EFDEC
:1023A0001548FEF729FD12480068FEF704F81248A8
:1023B000FEF7C8FC1048FEF7E3FC0D480068FDF787
:1023C000FAFF0C48FEF7FAFC0A48FEF715FD08482C
:1023D0000068FDF7F0FF0748FEF7B4FC0548FEF77C
:1023E000CFFC03480068FDF7E6FF10BD000007437F
:1023F000240000200000B4420000344210B5002048
:102400002149086019E02049096801F15A00FDF7E7
:1024100063FF0446FEF796FC1B490968C1F15A00A8
:10242000FDF75AFF0446FEF7C9FC0A20FDF7C3FF7B
:1024300015480068401C14490860134800684B2880
:10244000E1DB00201049086019E00F49096801F13B
:102450005A00FDF741FF0446FEF7CEFC0A49096821
:10246000C1F15A00FDF738FF0446FEF789FC0A2047
:10247000FDF7A1FF04480068401C034908600248BA
:1024800000684B28E1DB10BD1C00002010B50020C7
:10249000154908600DE01548FEF790FC1448FEF75A
:1024A00051FC0A20FDF787FF0F480068401C0E49C9
:1024B00008600D4800684B28EDDB00200A490860E1
:1024C0000DE00A48FEF75CFC0948FEF795FC0A207F
:1024D000FDF771FF04480068401C0349086002488A
:1024E00000684B28EDDB10BD1C00002000002543D8
:1024F0000000C84170B50446302C00D170BDFEF715
:10250000DDFB54490870FEF7E9FB53490870FEF7FC
:10251000F5FB52490870FEF701FC5149087086E04E
:102520004C4800785A280CDD4A480078401E49493A
:10253000087008460078FDF7D8FE0546FEF702FC55
:102540000FE0444800785A280BDA42480078401CD3
:102550004049087008460078FDF7C7FE0546FEF7BB
:10256000F1FB3E4800785A280CDD3C480078401EBC
:102570003A49087008460078FDF7B7FE0546FEF7B1
:102580001DFC0FE0354800785A280BDA33480078F4
:10259000401C3249087008460078FDF7A6FE054643
:1025A000FEF70CFC2C4800785A280CDD2A480078ED
:1025B000401E2949087008460078FDF796FE05463A
:1025C000FEF7DEFB0FE0244800785A280BDA224899
:1025D0000078401C2049087008460078FDF785FE09
:1025E0000546FEF7CDFB1E4800785A280CDD1C4836
:1025F0000078401E1A49087008460078FDF775FEFD
:102600000546FEF7F9FB0FE0154800785A280BDA6B
:1026100013480078401C1249087008460078FDF7FE
:1026200064FE0546FEF7E8FB0A20FDF7C4FE0948F4
:1026300000785A287FF474AF084800785A28F9D1F6
:10264000054800785A28F5D1054800785A28F1D174
:1026500000BF53E728000020290000202A000020A6
:102660002B00002010B50848FEF76CFB0648FEF76B
:1026700087FB0548FEF7A2FB0348FEF7BDFB4FF4BE
:10268000FA70FDF798FE10BD0000B44210B50020AE
:102690004349086019E04249096801F15A00FDF711
:1026A0001BFE0446FEF76CFB3D490968C1F15A0068
:1026B000FDF712FE0446FEF79FFB0520FDF77BFEAB
:1026C00037480068401C3649086035480068412892
:1026D000E1DB00203249086019E031490968C1F1A5
:1026E0005A00FDF7F9FD0446FEF72CFB2C4909685A
:1026F00001F15A00FDF7F0FD0446FEF75FFB0520EF
:10270000FDF759FE26480068401C2549086024480A
:1027100000681428E1DB4FF47A70FDF74CFE0020CE
:102720001F49086010E01E49096801F14600FDF7E5
:10273000D3FD0446FEF706FB0420FDF73CFE1848D7
:102740000068401C16490860154800683C28EADB10
:102750004FF47A70FDF72FFE1248FEF7F3FA4FF4AC
:10276000FA70FDF728FE1048FEF7ECFA4FF4FA7005
:10277000FDF721FE0B48FEF7E5FA4FF4FA70FDF77E
:102780001AFE0948FEF7DEFA4FF4FA70FDF713FE61
:102790000648FEF7D7FA0520FDF70DFE10BD000034
:1027A0001C000020000034430000024300008C4263
:1027B0000000000000000000000000000000000019
:1027C000000000F8000000000000003330000000AE
:1027D00000160E00160E00000000000000000000B1
:1027E00040C07840C0784000043F04043F04040027
:1027F000007088FC08300000001820FF211E000037
:10280000F008F000E018000000211C031E211E004B
:1028100000F00888700000001E21232419272110D1
:10282000000000160E000000000000000000000084
:10283000000000E01804020000000007182040001B
:1028400000020418E000000000402018070000000B
:10285000404080F0804040000202010F010202006F
:10286000000000F0000000000101011F0101010053
:10287000000000000000000000B070000000000038
:102880000000000000000000000101010101010141
:1028900000000000000000000030300000000000D8
:1028A00000000000806018040060180601000000AD
:1028B00000E010080810E000000F102020100F00AA
:1028C000001010F8000000000020203F2020000031
:1028D0000070080808887000003028242221300089
:1028E00000300888884830000018202020110E0091
:1028F0000000C02010F8000000070424243F24003A
:1029000000F80888880808000019212020110E000E
:1029100000E0108888180000000F112020110E0020
:1029200000380808C83808000000003F0000000018
:102930000070880808887000001C222121221C00D9
:1029400000E010080810E0000000312222110F0002
:10295000000000C0C0000000000000303000000097
:10296000000000C0C0000000000080B07000000047
:102970000000804020100800000102040810200020
:10298000404040404040400004040404040404006B
:102990000008102040800000002010080402010000
:1029A000007048080808F000000000303601000000
:1029B000C030C828E810E0000718272423140B00B3
:1029C0000000C038E0000000203C2302022738202D
:1029D00008F8888888700000203F202020110E0011
:1029E000C030080808083800071820202010080008
:1029F00008F808080810E000203F202020100F00F1
:102A000008F88888E8081000203F202023201800BC
:102A100008F88888E8081000203F20000300000024
:102A2000C03008080838000007182020221E0200C5
:102A300008F808000008F808203F210101213F2084
:102A4000000808F8080800000020203F20200000AF
:102A500000000808F8080800C08080807F0000009F
:102A600008F888C028180800203F200126382000D8
:102A700008F8080000000000203F2020202030003F
:102A800008F8F800F8F80800203F003F003F200059
:102A900008F830C00008F808203F200007183F0061
:102AA000E01008080810E0000F10202020100F0090
:102AB00008F808080808F000203F21010101000083
:102AC000E01008080810E0000F18242438504F00C8
:102AD00008F8888888887000203F2000030C302088
:102AE00000708808080838000038202121221C00C6
:102AF000180808F8080818000000203F200000000F
:102B000008F808000008F808001F202020201F00F7
:102B10000878880000C83808000007380E01000057
:102B2000F80800F80008F800033C0700073C030021
:102B3000081868808068180820302C03032C302087
:102B40000838C800C83808000000203F20000000F6
:102B500010080808C838080020382621202018004E
:102B6000000000FE020202000000007F4040400022
:102B7000000C30C000000000000000010638C0005A
:102B800000020202FE000000004040407F00000002
:102B900000201008040810200000000000000000C1
:102BA0000000000000000000808080808080808025
:102BB0000002040800000000000000000000000007
:102BC00000008080808000000019242222223F2003
:102BD00008F8008080000000003F112020110E0046
:102BE0000000008080800000000E112020201100D5
:102BF000000000808088F800000E112020103F2087
:102C00000000808080800000001F2222222213000A
:102C1000008080F0888888180020203F2020000055
:102C20000000808080808000006B9494949360000A
:102C300008F8008080800000203F210000203F2015
:102C400000809898000000000020203F2020000015
:102C5000000000809898000000C08080807F000005
:102C600008F8000080808000203F24022D302000E2
:102C7000000808F8000000000020203F202000008D
:102C80008080808080808000203F20003F20003FA7
:102C9000008080008080000000203F2100203F2035
:102CA0000000808080800000001F202020201F0066
:102CB000808000808000000080FFA12020110E0095
:102CC0000000008080808000000E112020A0FF8086
:102CD000808080008080800020203F212000010033
:102CE0000000808080808000003324242424190088
:102CF000008080E0808000000000001F2020000095
:102D00008080000000808000001F202020103F20D5
:102D1000808080000080808000010E300806010065
:102D200080800080008080800F300C030C300F000A
:102D300000808000808080000020312E0E31200035
:102D4000808080000080808080818E701806010065
:102D500000808080808080000021302C2221300083
:102D600000000000807C020200000000003F4040A4
:102D700000000000FF00000000000000FF00000055
:102D80000002027C800000000040403F0000000084
:102D90000080404080000080000000000001010031
:102DA0000000000000000000002F000000000700ED
:102DB000070000147F147F1400242A7F2A120023A6
:102DC00013086462003649552250000000070000D5
:102DD00000001C224100000041221C000014083E9B
:102DE00008140008083E0808000000A06000000861
:102DF00008080808000060600000002010080402B5
:102E0000003E5149453E0000427F40000042615172
:102E10004946002141454B31001814127F1000270C
:102E200045454539003C4A494930000171090503CF
:102E300000364949493600064949291E0000363600
:102E40000000000056360000000814224100001463
:102E50001414141400004122140800020151090640
:102E6000003E4955592E007C1211127C007F4949C1
:102E70004936003E41414122007F4141221C007FF2
:102E800049494941007F09090901003E4149497A00
:102E9000007F0808087F0000417F4100002040417A
:102EA0003F01007F08142241007F40404040007FE6
:102EB000020C027F007F0408107F003E4141413E2A
:102EC000007F09090906003E4151215E007F091972
:102ED00029460046494949310001017F0101003F6F
:102EE0004040403F001F2040201F003F4038403FEF
:102EF0000063140814630007087008070061514953
:102F0000454300007F4141000002040810200000FA
:102F100041417F0000040201020400404040404063
:102F2000000001020400002054545478007F4844FB
:102F3000443800384444442000384444487F003832
:102F40005454541800087E0901020018A4A4A47C5B
:102F5000007F080404780000447D40000040808425
:102F60007D00007F102844000000417F4000007C6D
:102F700004180478007C0804047800384444443879
:102F800000FC242424180018242418FC007C0804C5
:102F9000040800485454542000043F444020003C9E
:102FA0004040207C001C2040201C003C4030403C25
:102FB000004428102844001CA0A0A07C00446454B5
:102FC0004C440000087F41000000007F000000002A
:102FD000417F0800000804081008A3AC00000000AE
:102FE0000000000000000000000000000000005889
:102FF00038000000000000000000000000A1A30055
:1030000000000000000000000000000000000000C0
:103010000000182424180000000000000000000038
:10302000C4E300008060F8074020180F08C80808B3
:10303000281800010000FF00100C0340807F0001F1
:10304000061800BAC3001010F01F10F00080828232
:10305000E2928A86800040221508166100004080B6
:103060007F0000000000CAC000202020FE2020FFBA
:10307000202020FF20202020000000007F4040472B
:10308000444444474040400000BDE700000000FECB
:10309000929292FE929292FE000000000808048430
:1030A000621E010001FE020404080800A3A1000042
:1030B0000000FE0000000000000000000000000012
:1030C000000033000000000000000000000000BF0E
:1030D000AA0080828282FE8282828282FE82828234
:1030E0008000008040300F0000000000FF00000062
:1030F0000000D0C4000000800000E00204180000BE
:103100000040800000100C0300003F404040404061
:103110007800010E00D6B500008060F80704E4A432
:10312000A4BFA4A4E4040000010000FF40407F4AC3
:103130004A4A4A4A7F4040003A000000000000002E
:103140000000000000000000000000000036360013
:103150000000000000000000000000CCE50000803E
:1031600060F807101010D0FFD01010100000010000
:1031700000FF1008040B08FF080B04081000C1A68C
:1031800000001010101010FF1010101010F00000B0
:10319000000080402018060100204080403F0000D1
:1031A00000000000FF0101013109090909897101CD
:1031B000010101FFFF808080808080968180808077
:1031C000808080FFFF01818181FD8991A1C1FD8106
:1031D000818101FFFF808080809F888482819F8021
:1031E000808080FF00000000000000000000000060
:1031F00000000000000000000000000000000000CF
:1032000000000000000000000000000000000000BE
:1032100000000000000000000000000000000000AE
:10322000000000000000000000000000000000009E
:10323000000000000000000000000000000000008E
:10324000000000000000000000000000000000007E
:10325000000000000000000000000000000000006E
:10326000000000000000000000000000000000005E
:10327000000000000000000000000000000000004E
:1032800000008080800000000000000000000000BE
:10329000000000000000000000000000000000002E
:1032A000000000000000000000000000000000001E
:1032B000000000000000000000000000000000000E
:1032C000000000008080800000000000000000007E
:1032D00000000000000000000000000000000000EE
:1032E00000000000000000000000000000000000DE
:1032F00000000000000000000000000000F0F8FEE8
:10330000FFFFFFFFFFFFFFFEF8F0000000000000DE
:1033100000000000000000000000000000000000AD
:10332000000000000000000000000000000000009D
:10333000000000000000000000000000000000F09D
:10334000F8FEFFFFFFFFFFFFFFFEF8F000000000A8
:10335000000000000000000000000000000000006D
:10336000000000000000000000000000000000005D
:1033700000000000000000000000000000FFFFFF50
:10338000FFFFFFFFFFFFFFFFFFFF00000000000047
:10339000000000000000000000000000000000002D
:1033A000000000000000000000000000000000001D
:1033B000000000000000000000000000000000FF0E
:1033C000FFFFFFFFFFFFFFFFFFFFFFFF0000000009
:1033D00000000000000000000000000000000000ED
:1033E00000000000000000000000000000000000DD
:1033F00000000000000000000000000000FFFFFFD0
:10340000FFFFFFFFFFFFFFFFFFFF000000000000C6
:1034100000000000000000000000000000000000AC
:10342000000000000000000000000000000000009C
:10343000000000000000000000000000000000FF8D
:10344000FFFFFFFFFFFFFFFFFFFFFFFF0000000088
:10345000000000000000000000000000000000006C
:10346000000000000000000000000000000000005C
:10347000000000000000000000000000001F3FFFEF
:10348000FFFFFFFFFFFFFFFF3F1F000000000000E6
:10349000000000000000000000000000000000002C
:1034A000000000000000000000000000000000001C
:1034B0000000000000000000000000000000001FED
:1034C0003FFFFFFFFFFFFFFFFFFF3F1F0000000068
:1034D00000000000000000000000000000000000EC
:1034E00000000000000000000000000000000000DC
:1034F00000000000000000000000000000000000CC
:1035000001010303030101000000000000000000AE
:1035100000000000000000000000000000000000AB
:10352000000000000000000000000000000000009B
:10353000000000000000000000000000000000008B
:10354000000001010303030101000000000000006E
:10355000000000000000000000000000000000006B
:10356000000000000000000000000000000000005B
:10357000000000000000000000000000000000004B
:10358000000000000000000000000000000000003B
:10359000000000000000000000000000000000002B
:1035A000000000000000000000000000000000001B
:1035B000000000000000000000000000000000000B
:1035C00000000000000000000000000000000000FB
:1035D00000000000000000000000000000000000EB
:1035E00000000000000000000000000000000000DB
:1035F00000000000000000000000000000000000CB
:1036000000000000000000000000000000000000BA
:1036100000000000000000000000000000000000AA
:10362000000000000000000000000000000000009A
:10363000000000000000000000000000000000008A
:10364000000000000000000000000000000000007A
:10365000000000000000000000000000000000006A
:10366000000000000000000000000000000000005A
:10367000000000000000000000000000000000004A
:10368000000000000000000000000000000000003A
:10369000000000000000000000000000000000002A
:1036A000000000000000000000000000000000001A
:1036B000000000000000000000000000000000000A
:1036C00000000000000000000000000000000000FA
:1036D00000000000000000000000000000000000EA
:1036E00000000000000000000000000000000000DA
:1036F000000000000000FFFFFEFEFCFCF8F8F0F008
:10370000E0E0C0C080800000000000000000000079
:1037100000000000000000000000000000000000A9
:103720000000000000000000000000000000000099
:103730000000000000000000000000000000000089
:10374000000000008080C0C0E0E0F0F0F8F8FCFC71
:10375000FEFEFF000000000000000000000000006E
:103760000000000000000000000000000000000059
:103770000000000000000000010101030307070F23
:103780000F1F1F1F3F3F7F7FFEFEFEFCFCF8F8F07F
:10379000F0E0E0C0000000000000000000000000B9
:1037A0000000000000000000000000000000000019
:1037B000000000000000C0C0E0E0F0F0F8F8FCFC01
:1037C000FEFE7F7F3F3F3F1F1F0F0F0707030303CF
:1037D00001010000000000000000000000000000E7
:1037E00000000000000000000000000000000000D9
:1037F00000000000000000000000808080C0C0E0E9
:10380000E0F0F0F0F8F8FCFCFCFEFF7F7F3F3F1F8C
:103810001F0F0F0700000000000000000000000064
:103820000000000000000000000000000000000098
:103830000000000000000F0F1F1F3F3F7F7FFFFFB2
:10384000FCFCFCF8F8F0F0E0E0E0C0C08080800014
:103850000000000000000000000000000000000068
:103860000000000000000000000000000000000058
:10387000000000000000FEFEFF7F7F7F3F3F1F1F14
:103880000F0F070703030101010000000000000003
:103890000000000000000000000000000000000028
:1038A0000000000000000000000000000000000018
:1038B0000000000000000000000000000000000008
:1038C000010103030307070F0F1F1F3F3F7F7FFF08
:1038D000FFFEFE00000000000000000000000000ED
:1038E00000000000000000000000000000000000D8
:1038F00000000000000001000000000000000000C7
:1039000000000000000000000000000000000000B7
:1039100000000000000000000000000000000000A7
:103920000000000000000000000000000000000097
:103930000000000000000000000000000000000087
:103940000000000000000000000000000000000077
:103950000000010000000000000000000000000066
:103960000000000000000000000000000000000057
:103970000000000000000000000000000000000047
:103980000000000000000000000000000000000037
:103990000000000000000000000000000000000027
:1039A0000000000000000000000000000000000017
:1039B0000000000000000000000000000000000007
:1039C00000000000000000000000000000000000F7
:1039D00000000000000000000000000000000000E7
:1039E00000000000000000000000000000000000D7
:1039F00000000000000000000000000000000000C7
:103A000000000000000000000000000000000000B6
:103A100000000000000000000000000000000000A6
:103A20000000000000000000000000000000000096
:103A30000000000000000000000000000000000086
:103A40000000000000000000000000000000000076
:103A50000000000000000000000000000000000066
:103A60000000000000000000000000000000000056
:103A7000000000008080C0C0C08000000000000086
:103A80000000000000000000000000000000000036
:103A90000000000000000000000000000000000026
:103AA0000000000000000000000000000000000016
:103AB000000000008080C0C0C08000000000000046
:103AC00000000000000000000000000000000000F6
:103AD00000000000000000000000000000000000E6
:103AE00000000000000000000000000000000000D6
:103AF00000E0FFFFFFFFFFFFFFFFFE0000000000F0
:103B000000000000000000000000000000000000B5
:103B100000000000000000000000000000000000A5
:103B20000000000000000000000000000000000095
:103B300000E0FFFFFFFFFFFFFFFFFE0000000000AF
:103B40000000000000000000000000000000000075
:103B50000000000000000000000000000000000065
:103B60000000000000000000000000000000000055
:103B7000FFFFFFFFFFFFFFFFFFFFFF000000000050
:103B80000000000000000000000000000000000035
:103B90000000000000000000000000000000000025
:103BA0000000000000000000000000000000000015
:103BB000FFFFFFFFFFFFFFFFFFFFFF000000000010
:103BC00000000000000000000000000000000000F5
:103BD00000000000000000000000000000000000E5
:103BE00000000000000000000000000000000000D5
:103BF000FFFFFFFFFFFFFFFFFFFFFF0000000000D0
:103C000000000000000000000000000000000000B4
:103C100000000000000000000000000000000000A4
:103C20000000000000000000000000000000000094
:103C3000FFFFFFFFFFFFFFFFFFFFFF00000000008F
:103C40000000000000000000000000000000000074
:103C50000000000000000000000000000000000064
:103C60000000000000000000000000000000000054
:103C70000007FFFFFFFFFFFFFFFF7F0000000000C6
:103C80000000000000000000000000000000000034
:103C90000000000000000000000000000000000024
:103CA0000000000000000000000000000000000014
:103CB0000007FFFFFFFFFFFFFFFF7F000000000086
:103CC00000000000000000000000000000000000F4
:103CD00000000000000000000000000000000000E4
:103CE00000000000000000000000000000000000D4
:103CF00000000000010103030301000000000000B8
:103D000000000000000000000000000000000000B3
:103D100000000000000000000000000000000000A3
:103D20000000000000000000000000000000000093
:103D30000000000001010303030100000000000077
:103D40000000000000000000000000000000000073
:103D50000000000000000000000000000000000063
:103D60000000000000000000000000000000000053
:103D70000000000000000000000000000000000043
:103D80000000000000000000000000000000000033
:103D90000000000000000000000000000000000023
:103DA0000000000000000000000000000000000013
:103DB0000000000000000000000000000000000003
:103DC00000000000000000000000000000000000F3
:103DD00000000000000000000000000000000000E3
:103DE00000000000000000000000000000000000D3
:103DF00000000000000000000000000000000000C3
:103E000000000000000000000000000000000000B2
:103E100000000000000000000000000000000000A2
:103E20000000000000000000000000000000000092
:103E30000000000000000000000000000000000082
:103E40000000000000000000000000000000000072
:103E50000000000000000000000000000000000062
:103E60000000000000000000000000000000000052
:103E70000000000000000000000000000000000042
:103E8000000000000000000000000000000080C0F2
:103E9000C0C08080000000000000000000000000A2
:103EA0000000000000000000000000000000000012
:103EB0000000000000000000000000000000000002
:103EC000000000000000000000000000000080C0B2
:103ED000C0C0808000000000000000000000000062
:103EE00000000000000000000000000000000000D2
:103EF00000000000000000000000000000000000C2
:103F000000000000000000000000000000FEFFFFB5
:103F1000FFFFFFFFFFFFE0000000000000000000C7
:103F20000000000000000000000000000000000091
:103F30000000000000000000000000000000000081
:103F400000000000000000000000000000FEFFFF75
:103F5000FFFFFFFFFFFFE000000000000000000087
:103F60000000000000000000000000000000000051
:103F70000000000000000000000000000000000041
:103F800000000000000000000000000000FFFFFF34
:103F9000FFFFFFFFFFFFFFFF000000000000000029
:103FA0000000000000000000000000000000000011
:103FB0000000000000000000000000000000000001
:103FC00000000000000000000000000000FFFFFFF4
:103FD000FFFFFFFFFFFFFFFF0000000000000000E9
:103FE00000000000000000000000000000000000D1
:103FF00000000000000000000000000000000000C1
:1040000000000000000000000000000000FFFFFFB3
:10401000FFFFFFFFFFFFFFFF0000000000000000A8
:104020000000000000000000000000000000000090
:104030000000000000000000000000000000000080
:1040400000000000000000000000000000FFFFFF73
:10405000FFFFFFFFFFFFFFFF000000000000000068
:104060000000000000000000000000000000000050
:104070000000000000000000000000000000000040
:10408000000000000000000000000000007FFFFFB3
:10409000FFFFFFFFFFFF070000000000000000001F
:1040A0000000000000000000000000000000000010
:1040B0000000000000000000000000000000000000
:1040C000000000000000000000000000007FFFFF73
:1040D000FFFFFFFFFFFF07000000000000000000DF
:1040E00000000000000000000000000000000000D0
:1040F00000000000000000000000000000000000C0
:1041000000000000000000000000000000000103AB
:104110000303010100000000000000000000000097
:10412000000000000000000000000000000000008F
:10413000000000000000000000000000000000007F
:10414000000000000000000000000000000001036B
:104150000303010100000000000000000000000057
:10416000000000000000000000000000000000004F
:10417000000000000000000000000000000000003F
:10418000000000000000000000000000000000002F
:10419000000000000000000000000000000000001F
:1041A000000000000000000000000000000000000F
:1041B00000000000000000000000000000000000FF
:1041C00000000000000000000000000000000000EF
:1041D00000000000000000000000000000000000DF
:1041E00000000000000000000000000000000000CF
:1041F00000000000000000000000000000000000BF
:1042000000000000000000000000000000000000AE
:10421000000000000000000000000000000000009E
:10422000000000000000000000000000000000008E
:10423000000000000000000000000000000000007E
:10424000000000000000000000000000000000006E
:10425000000000000000000000000000000000005E
:10426000000000000000000000000000000000004E
:10427000000000000000000000000000000000003E
:10428000000000000000000000000000000000002E
:10429000000000000000000000000000000000001E
:1042A000000000000000000000000000000000000E
:1042B00000000000000000000000000000000000FE
:1042C00000000000000000000000000000000000EE
:1042D00000000000000000000000000000000000DE
:1042E00000000000000000000000000000000000CE
:1042F00080E0F0F030000000000000C080F0F0F03E
:1043000080C00000000000001C1C1C1C1C1C1C1C8D
:104310001C1C1C1C1C1C1C1C1C1C1CC0E0C0800089
:1043200000000000000000000080C0E0C01C1C1C59
:104330001C1C1C1C1C1C1C1C1C1C1C1C1C1C1C1CBD
:10434000000000000000C080F0F0F080C00000001D
:1043500000000030F0F0E0800000000000000000ED
:10436000000000000000000000000000000000F855
:10437000FFFF0F0000000000000000113F3F0F3F53
:104380003F110100000000000000000000000000DC
:1043900000000000000000000000000103070F0FF4
:1043A0001E1E3C3C3C3C1E1E0F0F0703010000007C
:1043B00000000000000000000000000000000000FD
:1043C000000000000001113F3F0F3F3F11000000BF
:1043D00000000000000FFFFFF800000000000000D8
:1043E0000000000000000000000000000000001FAE
:1043F000FFFFF000000000000000000000000000CF
:1044000000000000000000000000000000000000AC
:10441000000000000000000000000000000000009C
:10442000000000000000000000000000000000008C
:10443000000000000000000000000000000000007C
:10444000000000000000000000000000000000006C
:104450000000000000F0FFFF1F000000000000004F
:10446000000000000000000000000000000000004C
:1044700001070F0F0C00000000000000000000000A
:10448000000000000000000000000000000000002C
:10449000000000000000000000000000000000001C
:1044A000000000000000000000000000000000000C
:1044B00000000000000000000000000000000000FC
:1044C00000000000000000000000000000000000EC
:1044D0000000000C0F0F07010000000000000000AA
:1044E00000000000000000000000000000000000CC
:1044F00000000000000000000000000000000000BC
:1045000000000000000000000000000000000000AB
:10451000000000000000000000000000000000009B
:1048700000000000000000003E3E3C383838383868
:1048800038383838383838383838383838383838A8
:1048900038383838383C3C3C00000000000000004C
:1048A000003C3C3C383838383838383838383838B4
:1048B0003838383838383838383838383838383C74
:1048C0003E3E00000000000000000000000000006C
:1048D00000000000000000000000000000000000D8
:1048E00000000000000000000000000000000000C8
:1048F00000000000000000000000000000000000B8
:1049000000000000000000000000000000000000A7
:104B000000000000008080C0C0808000000080C0E5
:104B1000C0C0808000000000000000000000000015
:104B20000000000000000000000000000000000085
:104B3000000000008080C0C0808000000080C0C0F5
:104B4000C0808000000000000000000000000000A5
:104B50000000000000000000000000000000000055
:104B60000000000000000000000000000000000045
:104B700000E0F0F8FCFEFEFEFEFEFEFCF8F0E000B9
:104B80000000003CFFFF8301010303070F0703033D
:104B90000101C3FFFF7C00000000000000000000D6
:104BA0000000000000000000000000000000000005
:104BB00000007CFFFF8301010303070F07030301CC
:104BC00001C3FFFF3C00000000E0F0F8FCFEFEFE29
:104BD000FEFEFEFCF8F0E000000000000000000017
:104BE00000000000000000000000000000000000C5
:104BF00000070F1F3F7F7F7F7F7F7F3F1F0F0700D3
:104C0000000000000103070F1C3870E0E0E070387E
:104C10001C0F070300000000000F3F7FF0E0C08082
:104C2000800000000000008080C0E0F07F3F0F00A7
:104C30000000000103070F1C3870E0E0E070381C32
:104C40000F0703000000000000070F1F3F7F7F7F5A
:104C50007F7F7F3F1F0F0700000000000000000063
:104C60000000000000000000000000000000000044
:104C70000000000000000000000000000000000034
:104C80000000000000000000000000000000000024
:104C9000000000000000000000000000000103030D
:104CA00003070707070707030303010000000000CD
:104CB00000000000000000000000000000000000F4
:104CC00000000000000000000000000000000000E4
:104CD00000000000000000000000000000000000D4
:104CE00000000000000000000000000000000000C4
:104F700000000000008080808080000000000000B1
:104F800000000000808080000000000000000000A1
:104F90000000000000000000000000000000000011
:104FA0000000000000000000000000000000000001
:104FB00000000000000000000000000000000000F1
:104FC0000000000000000080808080800000000061
:104FD0000000000000008080800000000000000051
:104FE00000000000000000000000000000000000C1
:104FF000183C3E3F1F0F070707070F1F1F1E3C3CB3
:105000003C3C3E3F1F0F0703000000000000000073
:105010000000FCFCFC8C8C8C8C8C8C8C8C8C8C8C98
:105020008C8C8C8C8C8C8C8C8C8C8C8C8C8C8C8CC0
:105030008C8C0C0C0CFCFC0000000000000000003C
:105040000000183C3E3F1F0F070707070F1F1F1EDA
:105050003C3C3C3C3E3F1F0F0703000000000000AB
:105060000000000000000000000000000000000040
:105070000000000000000000000000000000000030
:105080000000000000000000000000000000000020
:105090000000010101010101010101010101010102
:1050A0000101010101010101010101010101017F72
:1050B0007F7F7070707F7F000000000000000000A4
:1050C00000000000000000000000000000000000E0
:1050D00000000000000000000000000000000000D0
:1050E00000000000000000000000000000000000C0
:1050F00000000000000000000000000000000000B0
:10510000000000000000000000000000000000009F
:10511000000000000000000000000000000000008F
:10512000000000000000000000000000000000007F
:10513000000000000000000000000000000000006F
:10514000000000000000000000000000000000005F
:10515000000000000000000000000000000000004F
:10516000000000000000000000000000000000003F
:10517000000000000000000000000000000000002F
:10518000000000000000000000000000000000001F
:10519000000000000000000000000000000000000F
:1051A00000000000000000000000000000000000FF
:1051B00000000000000000000000000000000000EF
:1051C00000000000000000000000000000000000DF
:1051D00000000000000000000000000000000000CF
:1051E00000000000000000000000000000000000BF
:1051F00000000000000000000000000000000000AF
:10520000000000000000000000000000000000009E
:10521000000000000000000000000000000000008E
:10522000000000000000000000000000000000007E
:10523000000000000000000000000000000000006E
:10524000000000000000000000000000000000005E
:10525000000000000000000000000000000000004E
:10526000000000000000000000000080C0C0C080FE
:1052700080000000000000000000000000000000AE
:10528000000000000000000000000000000000001E
:10529000000000000000000000000000000000000E
:1052A00000000000000000000000000000000000FE
:1052B00000000000000000000000000000000000EE
:1052C00000000000000000000000000000000000DE
:1052D000000000000000808080C0C0C0C0800000CE
:1052E00000000000000000000000000103030307AD
:1052F00007070F0F1E1E1C3C3C787878F0F0E0E0AA
:10530000E0C0C080808000000000000000000000BD
:10531000000000000000000000000000000000008D
:10532000000000000000000000000000000000007D
:10533000000000000000000000000000000000006D
:105340000000008080C0C0C0E0E0F0F07078383C21
:105350003C1E1E0E0F0F070703030303030100008B
:10536000000000000000000000000000000000003D
:1053700000000000000000000000808080C0C0C16C
:10538000C1C3E3E3E7E7FF7F7F7E7E7C3C3C180000
:10539000000000000000000000000000000000000D
:1053A00000000000000000000000000000000000FD
:1053B0000000000000000000000000000000000EDF
:1053C0000E1F1F1F3F3F3F39797970F0F0E0E0E09A
:1053D000C0C0C0C08080800000000000000000004D
:1053E00000000000000000000000000000000008B5
:1053F0001C1C1C1E1E0E0F0F0F07070703030303C1
:105400000101010100000000000000000000000098
:10541000000000000000000000808080808080800C
:10542000808080808080808080808080808080807C
:1054300080808080800000000000000000000000EC
:10544000000000000000000000000000000001015A
:10545000010303030387070F0F0F0E0E0400000064
:1054600000000000000000000000000080700C0040
:1054700000E0FE06000000E07E0F000000C0700C9F
:10548000000000000000000000000000000000001C
:105490000000000000000000000103030FFFFB8379
:1054A000030303030303030303030303030303FFD0
:1054B000FF1F0301010000000000000000000000C9
:1054C00000000000000000004038060000E07F03FC
:1054D000000080E03E03000000E07C0400000000CB
:1054E00000000000000000000000000000000000BC
:1054F000000100000000070300000000020100009E
:10550000000000000000000000000000000000009B
:105510000000000000000000000000000000030781
:105520000E0C0C0C0C0C0C0C0C0C0C0C0C0E0F07B9
:105530000300000000000000000000000000000068
:10554000000000000000000000000000000100005A
:10555000000007030000000003010000000000003D
:10556000000000000000000000000000000000003B
:10557000000000000000000000000000000000002B
:10558000000000000000000000000000000000001B
:10559000000000000000000000000000000000000B
:1055A00000000000000000000000000000000000FB
:1055B00000000000000000000000000000000000EB
:1055C00000000000000000000000000000000000DB
:1055D00000000000000000000000000000000000CB
:1055E00000000000000000000000000000000000BB
:1055F00000000000000000000000000000000000AB
:10560000000000000000000000000000000000009A
:10561000000000000000000000000000000000008A
:10562000000000000000000000000000000000007A
:10563000000000000000000000000000000000006A
:10564000000000000000000000000000000000005A
:10565000000000000000000000000000000000004A
:10566000000000000000000000000000000000003A
:10567000000000000000000000000000000000002A
:10568000000000000000000000000000000000001A
:10569000000000000000000000000000000000000A
:1056A00000000000000000000000000000000000FA
:1056B00000000000000000000000000000000000EA
:1056C000000000000080808080C0C0C0C0C0C080DA
:1056D00080800000000000000000000000000000CA
:1056E0000000000000000000000207070F0F0E1E60
:1056F0001E3C3C387878F0F0F0E0E0C0C0C080801C
:105700000000000000000000000000000000000099
:105710000000000000000000000000000000000089
:105720000000000000000000000000000000000079
:105730000000000000000080C0C0E0F0F0783C3CB9
:105740001E0E0F0F070703030383C3E3F3F3FFFFEB
:10575000FFFFFFFFFFFEFEFCF8F0F0E0C0000000DE
:105760000000000000000000000000000000000039
:105770000000000000000000000101010383878792
:10578000C7CFCFDEFEFCFCFCFCF8787020000000E8
:105790000000000000000000000000000000000009
:1057A00000000000000000000000000000000000F9
:1057B00000000000000000010303010000000000E1
:1057C0000000000000000060FEFFFFFFFFFFFFFF82
:1057D000FFFFFFFFFFFFFFFFFFFFFFFFFFFFFC00DB
:1057E0000000000000000000000000000030787899
:1057F00078383C1C1C1E1E0E0E0F0F0707070703F0
:10580000030303010101000000000000000000008C
:1058100000000000000000000000000070F0F0F048
:10582000707070707070707070707070F0F0F00068
:105830000000000000000000000000000000000068
:105840000000000000000000070F3F7F7FFFFFFF08
:10585000FFFFFFFFFFFFFFFFFFFF7F3F1F0701006D
:105860000000000000000000000000000000000038
:105870000000000000000000000000000000000028
:105880000000000000000000000000000000000018
:1058900000000000000000000000000000077FFF83
:1058A000F88000000000000000000080FFFF3F00C3
:1058B00000000000000000000000000000000000E8
:1058C00000000000000000000000000000000001D7
:1058D00001010101010101010000000000000000C0
:1058E00000000000000000000000000000000000B8
:1058F00000000000000000000000000000000000A8
:105900000000000000000000000000000000000097
:105910000000000000000000000000000000000780
:105920001F3F3838383030303838381F1F0F0000EC
:105930000000000000000000000000000000000067
:105940000000000000000000000000000000000057
:105950000000000000000000000000000000000047
:105960000000000000000000000000000000000037
:105970000000000000000000000000000000000027
:105980000000000000000000000000000000000017
:105990000000000000000000000000000000000007
:1059A00000000000000000000000000000000000F7
:1059B00000000000000000000000000000000000E7
:1059C00000000000000000000000000000000000D7
:1059D00000000000000000000000000000000000C7
:1059E00000000000000000000000000000000000B7
:1059F00000000000000000000000000000000000A7
:105A00000000000000000000000000000000000096
:105A10000000000000000000000000000000000086
:105A20000000000000000000000000000000000076
:105A30000000000000000000000000000000000066
:105A40000000000000000000000000000000000056
:105A50000000000000000000000000000000000046
:105A60000000000000000000000000000000000036
:105A70000000000000000000000000000000000026
:105A80000000000000000000000000000000000016
:105A90000000000000000000000000000000000006
:105AA00000000000000000000000000000000000F6
:105AB00000000000000000000000000000000000E6
:105AC00000000000000000000000000000000000D6
:105AD00000000000000000000000000000000000C6
:105AE000000000000000000000006070707878780E
:105AF00078F8F8F8F8F8F8F8F8FCFCFCFCFCFCFC8A
:105B0000FCFCFCFCFCFCDEDECEEEEEEEEEEEEEC0CF
:105B1000C080808000000000000000000000000045
:105B20000000000000000000000000000000000075
:105B30000000000000000003839BFBFFFFFFFFFF4E
:105B4000FFFFFFFFFFFFFFFFFFFFFFFFFFFFFFFF65
:105B5000FF7F7F7F7F3F3F3F3F3E3E3E3E3E3E1EBC
:105B6000000000000000000000303C3E3EFEFFFF51
:105B7000FFFFFFFFFFFFFFFFFFFFFFFFFFFFFFFF35
:105B8000FFFFFFEFEFEFE7E7E7E7E7E3E3E3E3E359
:105B90006141010100000000000000000000000061
:105BA00000000000000000000000000000000000F5
:105BB0000000000000000000030F1F1F1F1F1F1F19
:105BC0001F1F1F1F1F3F3F3F3F3F3F3F3F3F3F3F85
:105BD0003F3F3F3F3F3F3F3F3F3F3E3E3E3C0C004D
:105BE000000000000000000000000000020707079E
:105BF0000707070703030303030303030303010169
:105C0000010101010101000000000000000000008E
:105C1000000000000000000000000000C0C0C0C084
:105C2000C0C0C0C0C0C0C0C0C0C0C0C0C0C0C00034
:105C30000000000000000000000000000000000064
:105C40000000000000000000000000000000000054
:105C50000000000000000000000000000000000044
:105C60000000000000000000000000000000000034
:105C70000000000000000000000000000000000024
:105C80000000000000000000000000000000000014
:105C9000000000000000000000000000011FFFFFE6
:105CA000E10101010101010101010101FFFFFF000B
:105CB00000000000000000000000000000000000E4
:105CC00000000000000000000000000000000000D4
:105CD00000000000000000000000000000000000C4
:105CE00000000000000000000000000000000000B4
:105CF00000000000000000000000000000000000A4
:105D00000000000000000000000000000000000093
:105D10000000000000000000000000000000011F63
:105D20007FFEE0E0E0C0C0C0E0E0E07E7F3F00003A
:105D30000000000000000000000000000000000063
:105D40000000000000000000000000000000000053
:105D50000000000000000000000000000000000043
:105D60000000000000000000000000000000000033
:105D70000000000000000000000000000000000023
:105D80000000000000000000000000000000000013
:105D90000000000000000000000000000000000003
:105DA00000000000000000000000000000000000F3
:105DB00000000000000000000000000000000000E3
:105DC00000000000000000000000000000000000D3
:105DD00000000000000000000000000000000000C3
:105DE00000000000000000000000000000000000B3
:105DF00000000000000000000000000000000000A3
:105E00000000000000000000000000000000000092
:105E10000000000000000000000000000000000082
:105E20000000000000000000000000000000000072
:105E30000000000000000000000000000000000062
:105E40000000000000000000000000000000000052
:105E50000000000000000000000000000000000042
:105E60000000000000000000000000000000000032
:105E70000000000000000000000000000000000022
:105E80000000000000000000000000000000000012
:105E90000000000000000000000000000000000002
:105EA00000000000000000000000000000000000F2
:105EB00000000000000000000000000000000000E2
:105EC00000000000000000000000000000000000D2
:105ED00000000000000000000000000000000000C2
:105EE00000000000000000000000000000000000B2
:105EF00000000000000000000000000000000000A2
:105F0000000000000000000000C0F0F83C3C7CF8FD
:105F1000E080000000000000000000000000000021
:105F20000000000000000000000000000000000071
:105F300000000000000080C0F07C3C3C7CF0E08071
:105F40000000000000000000000000000000000051
:105F50000000000000000000000000000000000041
:105F60000000000000000000000000000000000031
:105F70000060606060606060606060606060606081
:105F8000606000000000000E0F070100000000012B
:105F900003070F0C000000008080000000000000DC
:105FA00000000080808000000000000000000080F1
:105FB00080000000000E0F07010000000001030F29
:105FC0000E0C000000000060606060606060606057
:105FD00060606060606060600000000000000000C1
:105FE00000000000000000000000000000000000B1
:105FF0000060606060606060606060606060606001
:1060000060600000000000000000000000000000D0
:106010000000000000000000073F78E0C0C0C07032
:106020003C1E07030103071E3C70C0C0C0E0783F60
:106030000700000000000000000000000000000059
:1060400000000000000000606060606060606060F0
:106050006060606060606060000000000000000040
:106060000000000000000000000000000000000030
:106070000000000000000000000000000000000020
:106080000000000000000000000000000000000010
:106090000000000000000000000000000000000000
:1060A00000000000000000000000000000000000F0
:1060B00000000000000000000000000000000000E0
:1060C00000000000000000000000000000000000D0
:1060D00000000000000000000000000000000000C0
:1060E00000000000000000000000000000000000B0
:1060F00000000000000000000000000000000000A0
:10610000000000000000000000000000000000008F
:10611000000000000000000000000000000000007F
:10612000000000000000000000000000000000006F
:10613000000000000000000000000000000000005F
:10614000000000000000000000000000000000004F
:10615000000000000000000000000000000000003F
:10616000000000000000000000000000000000002F
:10617000000000000000000000000000000000001F
:10618000000000000000000000000000000000000F
:1061900000000000000000000000000000000000FF
:1061A00000000000000000000000000000000000EF
:1061B00000000000000000000000000000000000DF
:1061C00000000000000000000000000000000000CF
:1061D00000000000000000000000000000000000BF
:1061E00000000000000000000000000000000000AF
:1061F0000000000000000000000000000080C060FF
:1062000020301008080C04040602020202020202F6
:10621000020202020202020202020202020202025E
:10622000020202020101010101010102020206044F
:10623000040C0808181030604040C08000000000C6
:10624000000000000000000000000000000000004E
:10625000000000000000000000000000000000003E
:10626000000000000000000000000000000000002E
:10627000C070180C070100000000000000000000C2
:10628000000000000000000000000000000000000E
:1062900000000000000000000000000000000000FE
